{
  "transactions": [
    {
      "hash": "0x2c51baa2c222c651e2ab7953ad45b3f6a30b38d8a39775fdd9aebe0b20133140",
      "transactionType": "CALL",
      "contractName": null,
      "contractAddress": "0x95501f3a28bd1d4358e4be7a050925faf7c700ac",
      "function": "mintNft(string)",
      "arguments": [
        "ipfs://bafybeig37ioir76s7mg5oobetncojcm3c3hxasyd4rvid4jqhy4gkaheg4/?filename=0-PUG.json"
      ],
      "transaction": {
        "from": "0x5eba55e1b43c8714e4432250dada7a518780c871",
        "to": "0x95501f3a28bd1d4358e4be7a050925faf7c700ac",
        "gas": "0x3da7f",
        "value": "0x0",
        "input": "0xda86f4a900000000000000000000000000000000000000000000000000000000000000200000000000000000000000000000000000000000000000000000000000000057697066733a2f2f62616679626569673337696f6972373673376d67356f6f6265746e636f6a636d3363336878617379643472766964346a71687934676b61686567342f3f66696c656e616d653d302d5055472e6a736f6e000000000000000000",
        "nonce": "0x97",
        "chainId": "0xaa36a7"
      },
      "additionalContracts": [],
      "isFixedGasLimit": false
    }
  ],
  "receipts": [
    {
      "status": "0x1",
      "cumulativeGasUsed": "0xcfcb1c",
      "logs": [
        {
          "address": "0x95501f3a28bd1d4358e4be7a050925faf7c700ac",
          "topics": [
            "0xddf252ad1be2c89b69c2b068fc378daa952ba7f163c4a11628f55a4df523b3ef",
            "0x0000000000000000000000000000000000000000000000000000000000000000",
            "0x0000000000000000000000005eba55e1b43c8714e4432250dada7a518780c871",
            "0x0000000000000000000000000000000000000000000000000000000000000000"
          ],
          "data": "0x",
          "blockHash": "0x7234aff0d101a3c5a738719fbc128ad4925d7ef8acf9879a65fceacae0b57d17",
          "blockNumber": "0x785c29",
          "blockTimestamp": "0x67d1ad04",
          "transactionHash": "0x2c51baa2c222c651e2ab7953ad45b3f6a30b38d8a39775fdd9aebe0b20133140",
          "transactionIndex": "0x9a",
          "logIndex": "0x106",
          "removed": false
        }
      ],
      "logsBloom": "0x0000000000000000000100000000000000000000000000000000000000000000000000000000000000000000000000000000000000000000000000000000000000000000000000000000000a000000000000000000000000000000000000000000000000020000000000000001000800000000000400000000000010000000000000000000000000000000000000000000000000000000000000000000000000000000000000000000000000000000000000000000000000000000000000000000000002000000000000000000000000004000000000000001000000000020000000000000000000000000000000000000000000000000000000000000000000",
      "type": "0x2",
      "transactionHash": "0x2c51baa2c222c651e2ab7953ad45b3f6a30b38d8a39775fdd9aebe0b20133140",
      "transactionIndex": "0x9a",
      "blockHash": "0x7234aff0d101a3c5a738719fbc128ad4925d7ef8acf9879a65fceacae0b57d17",
      "blockNumber": "0x785c29",
      "gasUsed": "0x2ca35",
      "effectiveGasPrice": "0xc62a10a16",
      "from": "0x5eba55e1b43c8714e4432250dada7a518780c871",
      "to": "0x95501f3a28bd1d4358e4be7a050925faf7c700ac",
      "contractAddress": null
    }
  ],
  "libraries": [],
  "pending": [],
  "returns": {},
  "timestamp": 1741794566,
  "chain": 11155111,
  "commit": "5eb35e0"
}